# Bitcoin Core v29.0 RC Testing Reports


- Release Notes for v29.0 [here](https://github.com/bitcoin-core/bitcoin-devwiki/wiki/29.0-Release-Notes-Draft)
- Testing guide for v29.0 RC [here](https://github.com/bitcoin-core/bitcoin-devwiki/wiki/29.0-Release-Candidate-Testing-Guide)

## Removed support for UPnP to NAT-PMP
The support for UPnP(miniupnpc lib) was removed in PR [#31130](https://github.com/bitcoin/bitcoin/pull/31130), I also did a Review Club on that which can be viewed here (https://github.com/Bitshala/BitcoinCore-PR-Review-Club/discussions/90).

### Testing the NAT-PMP auto-forwarding policy:
Checking out to rc2 tag,
```
git checkout v29.0rc2
cmake -B build
cmake --build build -j 4

./build/src/bitcoind -natpmp
```
It was successful on my router and below is the startup logs:
```
2025-03-25T07:41:33Z Config file arg: chain="main"
2025-03-25T07:41:33Z Config file arg: prune="1000"
2025-03-25T07:41:33Z Command-line arg: natpmp=""
2025-03-25T07:41:33Z Using at most 125 automatic connections (1024 file descriptors available)
2025-03-25T07:41:33Z scheduler thread start
2025-03-25T07:41:33Z Binding RPC on address ::1 port 8332
2025-03-25T07:41:33Z Binding RPC on address 127.0.0.1 port 8332
```

When executing bitcoind with `-upnp` option:
```
./build/src/bitcoind -upnp
``` 
I got a warning message as expected:
```
Warning: Option '-upnp' is set but UPnP support was dropped in version 29.0. Consider using '-natpmp' instead.
```

### Testing the PCP changes and IPv6 pinholing:
It was not successful on my home router
Router Model: JCO4032 
System: MacOS Sequoia 15.2 
Version tested: v29.0rc2
Result: Failed - No PCP response

```
2025-03-25T10:04:47Z [net] pcp: Timeout
2025-03-25T10:04:47Z [net] pcp: Retrying (1)
2025-03-25T10:04:48Z [net] pcp: Timeout
2025-03-25T10:04:48Z [net] pcp: Retrying (2)
2025-03-25T10:04:49Z [net] pcp: Timeout
2025-03-25T10:04:49Z [net] pcp: Giving up after 3 tries
2025-03-25T10:04:49Z [net] portmap: gateway [IPv6]: fe80:...
2025-03-25T10:04:49Z [net] pcp: Requesting port mapping for addr 2405:xxx:xxxx:xxxx:xxxx:xxxx:xxxx:xxxx port 18444 from gateway xxx:xxxx:xxxx:xxxx:xxxx:xxxx:xxxx
2025-03-25T10:04:49Z [net] pcp: Internal address after connect: 2405:xxx:xxxx:xxxx:xxxxx:xxxxx:xxxx:xxxx
2025-03-25T10:04:50Z [net] pcp: Timeout
2025-03-25T10:04:50Z [net] pcp: Retrying (1)
2025-03-25T10:04:51Z [net] pcp: Timeout
2025-03-25T10:04:51Z [net] pcp: Retrying (2)
2025-03-25T10:04:52Z [net] pcp: Timeout
2025-03-25T10:04:52Z [net] pcp: Giving up after 3 tries
```

Successfull PCP request would show like this:

```
 [net] portmap: gateway [IPv4]: 192.168.0.1
 [net] pcp: Requesting port mapping for addr 0.0.0.0 port 8333 from gateway 192.168.0.1
 [net] pcp: Internal address after connect: 192.168.0.150
 [net] pcp: Received response of 8 bytes: (scrubbed)
 [net] portmap: Got unsupported PCP version response, falling back to NAT-PMP
 [net] natpmp: Requesting port mapping port 8333 from gateway 192.168.0.1
 [net] natpmp: Received response of 12 bytes: (scrubbed)
 [net] natpmp: Received response of 16 bytes: (scrubbed)
 [net:info] portmap: Added mapping natpmp:(scrubbed) -> 192.168.0.150:8333 (for 2400s)
 [net] portmap: gateway [IPv6]: (scrubbed)
 [net] pcp: Requesting port mapping for addr (scrubbed) port 8333 from gateway (scrubbed)
 [net] pcp: Internal address after connect: (scrubbed)
```

## Testing Mempool Policy and Mining Changes

// To-Do: Will add here later

## Testing updated RPC's

### `reject-details` in `testmempoolaccept` rpc
Bitcoin Core v29.0 has introduces new verbose filed in testmempoolaccept. I am testing it on my local machine.
Since we need to test `testmempoolaccept` rpc, in that case, we need to mine some blocks for some test bitcoins and create a raw transaction (valid as well as invalid)
and look at the invalid or rejected details.

Note: From version v29.0 we'll be updating our build system to CMake instead of Autotools, see the [docs](https://github.com/bitcoin/bitcoin/tree/master/doc) for more details, people coming from Autotools can see this [docs](https://github.com/bitcoin/bitcoin/tree/master/doc) for mapping Autotools with CMake

- First, let's add this to bitcoin.conf file:
```
regtest=1
```

- Run bitcoin-core daemon
```
bitcoind -daemon
```

- Create a wallet for receiving funds
```
bitcoin-cli createwallet "yuvic"
```

- Mine some blocks(101), for coinbase maturity

```
bitcoin-cli generatetoaddress 101 $(bitcoin-cli getnewaddress)
```

- Check the balance

```
bitcoin-cli getbalance
```
Output:
```
50.00000000
```

- Let's check our UTXO and create a transaction (Valid), you should be getting something similar to this:
```
bitcoin-cli listunspent
[
  {
    "txid": "810aa51b7eeb1c6c3fff3aeec1e091ff6abdcc97c1fdf61e9ae1a7cf554e739d",
    "vout": 0,
    "address": "bcrt1q25ux3dh7r0ufwp7cv2jxe9a9s946d4theygqfv",
    "label": "",
    "scriptPubKey": "0014553868b6fe1bf89707d862a46c97a5816ba6d577",
    "amount": 50.00000000,
    "confirmations": 101,
    "spendable": true,
    "solvable": true,
    "desc": "wpkh([56b0134a/84h/1h/0h/0/0]02387ca2148bd2cefb1d3bbf31e441e591c77845e6b38b09310eebe177c2263c7b)#yutxcg03",
    "parent_descs": [
      "wpkh(tpubD6NzVbkrYhZ4XnXDgzBK16VQ9RV73D4Fu3ffD72xTdvUvoUSh2ErtQ6qnkVbtMCxcjaurjaVSDd49qPWHPZ3VS3MvrVWQzLF3q5sfntc6Wd/84h/1h/0h/0/*)#m0a2rpja"
    ],
    "safe": true
  }
]
```

- Create a Raw Transaction:
```
bitcoin-cli createrawtransaction '[{"txid":"810aa51b7eeb1c6c3fff3aeec1e091ff6abdcc97c1fdf61e9ae1a7cf554e739d","vout":0}]' '[{"bcrt1q25ux3dh7r0ufwp7cv2jxe9a9s946d4theygqfv":49.99990000}, {"data":"6a0001"}]'
02000000019d734e55cfa7e19a1ef6fdc197ccbd6aff91e0c1ee3aff3f6c1ceb7e1ba50a810000000000fdffffff02f0ca052a01000000160014553868b6fe1bf89707d862a46c97a5816ba6d5770000000000000000056a036a000100000000
```

- Sign the raw transaction with wallet
```
bitcoin-cli signrawtransactionwithwallet "02000000019d734e55cfa7e19a1ef6fdc197ccbd6aff91e0c1ee3aff3f6c1ceb7e1ba50a810000000000fdffffff02f0ca052a01000000160014553868b6fe1bf89707d862a46c97a5816ba6d5770000000000000000056a036a000100000000"
{
  "hex": "020000000001019d734e55cfa7e19a1ef6fdc197ccbd6aff91e0c1ee3aff3f6c1ceb7e1ba50a810000000000fdffffff02f0ca052a01000000160014553868b6fe1bf89707d862a46c97a5816ba6d5770000000000000000056a036a00010247304402204971a8fcbee94011a23488c65d767184b7cf6984c0c4af8f7dea05a052ddb8910220133dcfece27f74e8c2e2526c1ea2e9ad3101436b8f4486c82b41d33f857bb0f6012102387ca2148bd2cefb1d3bbf31e441e591c77845e6b38b09310eebe177c2263c7b00000000",
  "complete": true
}
```

- Send the transaction to the mempool
```
bitcoin-cli sendrawtransaction "020000000001019d734e55cfa7e19a1ef6fdc197ccbd6aff91e0c1ee3aff3f6c1ceb7e1ba50a810000000000fdffffff02f0ca052a01000000160014553868b6fe1bf89707d862a46c97a5816ba6d5770000000000000000056a036a00010247304402204971a8fcbee94011a23488c65d767184b7cf6984c0c4af8f7dea05a052ddb8910220133dcfece27f74e8c2e2526c1ea2e9ad3101436b8f4486c82b41d33f857bb0f6012102387ca2148bd2cefb1d3bbf31e441e591c77845e6b38b09310eebe177c2263c7b00000000"

288965f0406f90b823ee837e48f7f9eeec821e06497a10e5ea6213e3319779da
```

### We have created the first transaction and now let's create another one which will be replacing this transaction with some lower fee

Follow the same steps as above but keep in mind to decrease the fee.

```
bitcoin-cli createrawtransaction '[{"txid":"810aa51b7eeb1c6c3fff3aeec1e091ff6abdcc97c1fdf61e9ae1a7cf554e739d","vout":0}]' '[{"bcrt1q25ux3dh7r0ufwp7cv2jxe9a9s946d4theygqfv":49.99995000}, {"data":"6a0001"}]'
```

- Test using `testmempoolaccept` rpc:
```
bitcoin-cli testmempoolaccept '["020000000001019d734e55cfa7e19a1ef6fdc197ccbd6aff91e0c1ee3aff3f6c1ceb7e1ba50a810000000000fdffffff0278de052a01000000160014553868b6fe1bf89707d862a46c97a5816ba6d5770000000000000000056a036a000102473044022066c2760bf6098d49156b8ee0a04b7350f5f6f13d8b11ac77ed12895f2950d7d302205e5fbf19fcc1264f6ad6a0b75348df1091889231dc8b2aa6c67429a3a9cd3ac8012102387ca2148bd2cefb1d3bbf31e441e591c77845e6b38b09310eebe177c2263c7b00000000"]'
[
  {
    "txid": "99cd7c2bbb498fa4f4dce5cac8603b13972e2477abd1521ef2706cd1265b4ac6",
    "wtxid": "12b80d2e9cb4f627f1667cfc545986ed02895da4b880b3ee4e15a3a90b67c04a",
    "allowed": false,
    "reject-reason": "insufficient fee"
    "reject-details": "insufficient fee, rejecting replacement bc4793b107295bc149377c32ed170c42290e40ad9b7cdb71dc7104adbf84fe9a; new feerate 0.00045454 BTC/kvB <= old feerate 0.00080645 BTC/kvB"
  }
]
```

We see that the second transaction has been rejected with the *reject-details* field giving us a verbose reason as to why our transaction was rejected.

### To Test other rpc's you can see [here](https://github.com/bitcoin-core/bitcoin-devwiki/wiki/29.0-Release-Candidate-Testing-Guide#4-new-rpcs) and follow the steps












